{
    "contractName": "xSIGFarm",
    "abi": [
        {
            "anonymous": false,
            "inputs": [
                {
                    "indexed": true,
                    "internalType": "address",
                    "name": "user",
                    "type": "address"
                },
                {
                    "indexed": true,
                    "internalType": "uint256",
                    "name": "amount",
                    "type": "uint256"
                }
            ],
            "name": "Claimed",
            "type": "event"
        },
        {
            "anonymous": false,
            "inputs": [
                {
                    "indexed": true,
                    "internalType": "address",
                    "name": "previousOwner",
                    "type": "address"
                },
                {
                    "indexed": true,
                    "internalType": "address",
                    "name": "newOwner",
                    "type": "address"
                }
            ],
            "name": "OwnershipTransferred",
            "type": "event"
        },
        {
            "anonymous": false,
            "inputs": [
                {
                    "indexed": true,
                    "internalType": "address",
                    "name": "user",
                    "type": "address"
                },
                {
                    "indexed": true,
                    "internalType": "uint256",
                    "name": "amount",
                    "type": "uint256"
                },
                {
                    "indexed": true,
                    "internalType": "uint256",
                    "name": "totalBondedAmount",
                    "type": "uint256"
                }
            ],
            "name": "Staked",
            "type": "event"
        },
        {
            "anonymous": false,
            "inputs": [
                {
                    "indexed": true,
                    "internalType": "address",
                    "name": "user",
                    "type": "address"
                },
                {
                    "indexed": true,
                    "internalType": "uint256",
                    "name": "amount",
                    "type": "uint256"
                },
                {
                    "indexed": true,
                    "internalType": "uint256",
                    "name": "totalBondedAmount",
                    "type": "uint256"
                }
            ],
            "name": "Unstaked",
            "type": "event"
        },
        {
            "inputs": [],
            "name": "claim",
            "outputs": [],
            "stateMutability": "nonpayable",
            "type": "function"
        },
        {
            "inputs": [
                {
                    "internalType": "address",
                    "name": "_address",
                    "type": "address"
                }
            ],
            "name": "claimable",
            "outputs": [
                {
                    "internalType": "uint256",
                    "name": "",
                    "type": "uint256"
                }
            ],
            "stateMutability": "view",
            "type": "function"
        },
        {
            "inputs": [],
            "name": "generationRate",
            "outputs": [
                {
                    "internalType": "uint256",
                    "name": "",
                    "type": "uint256"
                }
            ],
            "stateMutability": "view",
            "type": "function"
        },
        {
            "inputs": [
                {
                    "internalType": "address",
                    "name": "_address",
                    "type": "address"
                }
            ],
            "name": "getStakedXSIG",
            "outputs": [
                {
                    "internalType": "uint256",
                    "name": "",
                    "type": "uint256"
                }
            ],
            "stateMutability": "view",
            "type": "function"
        },
        {
            "inputs": [
                {
                    "internalType": "address",
                    "name": "_address",
                    "type": "address"
                }
            ],
            "name": "isUser",
            "outputs": [
                {
                    "internalType": "bool",
                    "name": "",
                    "type": "bool"
                }
            ],
            "stateMutability": "view",
            "type": "function"
        },
        {
            "inputs": [],
            "name": "maxVxSIGPerXSIG",
            "outputs": [
                {
                    "internalType": "uint256",
                    "name": "",
                    "type": "uint256"
                }
            ],
            "stateMutability": "view",
            "type": "function"
        },
        {
            "inputs": [],
            "name": "owner",
            "outputs": [
                {
                    "internalType": "address",
                    "name": "",
                    "type": "address"
                }
            ],
            "stateMutability": "view",
            "type": "function"
        },
        {
            "inputs": [],
            "name": "renounceOwnership",
            "outputs": [],
            "stateMutability": "nonpayable",
            "type": "function"
        },
        {
            "inputs": [
                {
                    "internalType": "uint256",
                    "name": "_generationRate",
                    "type": "uint256"
                }
            ],
            "name": "setGenerationRate",
            "outputs": [],
            "stateMutability": "nonpayable",
            "type": "function"
        },
        {
            "inputs": [
                {
                    "internalType": "address",
                    "name": "_SIG",
                    "type": "address"
                },
                {
                    "internalType": "address",
                    "name": "_vxSIG",
                    "type": "address"
                },
                {
                    "internalType": "uint256",
                    "name": "_generationRate",
                    "type": "uint256"
                },
                {
                    "internalType": "uint256",
                    "name": "_maxVxSIGPerXSIG",
                    "type": "uint256"
                }
            ],
            "name": "setInitialInfo",
            "outputs": [],
            "stateMutability": "nonpayable",
            "type": "function"
        },
        {
            "inputs": [
                {
                    "internalType": "uint256",
                    "name": "_maxVxSIGPerXSIG",
                    "type": "uint256"
                }
            ],
            "name": "setMaxBoosterPerSIG",
            "outputs": [],
            "stateMutability": "nonpayable",
            "type": "function"
        },
        {
            "inputs": [
                {
                    "internalType": "contract Whitelist",
                    "name": "_whitelist",
                    "type": "address"
                }
            ],
            "name": "setWhitelist",
            "outputs": [],
            "stateMutability": "nonpayable",
            "type": "function"
        },
        {
            "inputs": [
                {
                    "internalType": "uint256",
                    "name": "_amount",
                    "type": "uint256"
                }
            ],
            "name": "stake",
            "outputs": [],
            "stateMutability": "nonpayable",
            "type": "function"
        },
        {
            "inputs": [
                {
                    "internalType": "address",
                    "name": "newOwner",
                    "type": "address"
                }
            ],
            "name": "transferOwnership",
            "outputs": [],
            "stateMutability": "nonpayable",
            "type": "function"
        },
        {
            "inputs": [
                {
                    "internalType": "uint256",
                    "name": "_amount",
                    "type": "uint256"
                }
            ],
            "name": "unstake",
            "outputs": [],
            "stateMutability": "nonpayable",
            "type": "function"
        },
        {
            "inputs": [
                {
                    "internalType": "address",
                    "name": "",
                    "type": "address"
                }
            ],
            "name": "userInfoOf",
            "outputs": [
                {
                    "internalType": "uint256",
                    "name": "stakedXSIG",
                    "type": "uint256"
                },
                {
                    "internalType": "uint256",
                    "name": "lastRelease",
                    "type": "uint256"
                },
                {
                    "internalType": "uint256",
                    "name": "startTime",
                    "type": "uint256"
                }
            ],
            "stateMutability": "view",
            "type": "function"
        },
        {
            "inputs": [],
            "name": "vxSIG",
            "outputs": [
                {
                    "internalType": "contract IVxERC20",
                    "name": "",
                    "type": "address"
                }
            ],
            "stateMutability": "view",
            "type": "function"
        },
        {
            "inputs": [],
            "name": "whitelist",
            "outputs": [
                {
                    "internalType": "contract Whitelist",
                    "name": "",
                    "type": "address"
                }
            ],
            "stateMutability": "view",
            "type": "function"
        },
        {
            "inputs": [],
            "name": "xSIG",
            "outputs": [
                {
                    "internalType": "contract IERC20",
                    "name": "",
                    "type": "address"
                }
            ],
            "stateMutability": "view",
            "type": "function"
        }
    ],
    "bytecode": "608060405234801561001057600080fd5b5061001a3361001f565b61006f565b600080546001600160a01b038381166001600160a01b0319831681178455604051919092169283917f8be0079c531659141344cd1fd0a4f28419497f9722a3daafe3b4186f6b6457e09190a35050565b61103a8061007e6000396000f3fe608060405234801561001057600080fd5b50600436106101215760003560e01c80637b1ba250116100ad578063a694fc3a11610071578063a694fc3a1461028c578063ac630ec81461029f578063cc640e9e146102b2578063d1d4337c146102c5578063f2fde38b146102d857600080fd5b80637b1ba25014610225578063854cff2f1461022e5780638da5cb5b146102415780638fb6039e1461026657806393e59dc11461027957600080fd5b8063441e6a44116100f4578063441e6a44146101af5780634a4ee518146101f95780634e71d92d1461020257806350312e831461020a578063715018a61461021d57600080fd5b8063282a1129146101265780632e17de781461013b578063402914f51461014e5780634209fff114610174575b600080fd5b610139610134366004610e72565b6102eb565b005b610139610149366004610e72565b610370565b61016161015c366004610ea0565b610656565b6040519081526020015b60405180910390f35b61019f610182366004610ea0565b6001600160a01b0316600090815260066020526040902054151590565b604051901515815260200161016b565b6101de6101bd366004610ea0565b60066020526000908152604090208054600182015460029092015490919083565b6040805193845260208401929092529082015260600161016b565b61016160045481565b61013961068d565b610139610218366004610ec4565b6106f4565b610139610759565b61016160035481565b61013961023c366004610ea0565b61078d565b6000546001600160a01b03165b6040516001600160a01b03909116815260200161016b565b610139610274366004610e72565b6107ff565b60055461024e906001600160a01b031681565b61013961029a366004610e72565b61087b565b60015461024e906001600160a01b031681565b6101616102c0366004610ea0565b6109ef565b60025461024e906001600160a01b031681565b6101396102e6366004610ea0565b610a33565b6000546001600160a01b0316331461031e5760405162461bcd60e51b815260040161031590610f0a565b60405180910390fd5b8061036b5760405162461bcd60e51b815260206004820152601e60248201527f67656e65726174696f6e20726174652063616e6e6f74206265207a65726f00006044820152606401610315565b600355565b600081116103cf5760405162461bcd60e51b815260206004820152602660248201527f556e7374616b6520616d6f756e742073686f756c64206265206269676765722060448201526507468616e20360d41b6064820152608401610315565b336000908152600660205260409020805461042c5760405162461bcd60e51b815260206004820152601b60248201527f5468657265206973206e6f207853494720746f20756e626f6e642e00000000006044820152606401610315565b8054821061047c5760405162461bcd60e51b815260206004820152601a60248201527f496e737566666369656e74207853494720746f20756e626f6e640000000000006044820152606401610315565b818160000160008282546104909190610f55565b909155505080546104ae5760006002820181905560018201556104bc565b426002820181905560018201555b6002546040516370a0823160e01b81523360048201526000916001600160a01b0316906370a082319060240160206040518083038186803b15801561050057600080fd5b505afa158015610514573d6000803e3d6000fd5b505050506040513d601f19601f820116820180604052508101906105389190610f6c565b600254604051632770a7eb60e21b8152336004820152602481018390529192506001600160a01b031690639dc29fac90604401600060405180830381600087803b15801561058557600080fd5b505af1158015610599573d6000803e3d6000fd5b505060015460405163a9059cbb60e01b8152336004820152602481018790526001600160a01b03909116925063a9059cbb9150604401602060405180830381600087803b1580156105e957600080fd5b505af11580156105fd573d6000803e3d6000fd5b505050506040513d601f19601f820116820180604052508101906106219190610f85565b508154604051849033907f7fc4727e062e336010f2c282598ef5f14facb3de68cf8195c2f23e1454b2b74e90600090a4505050565b60006001600160a01b03821661067e5760405162461bcd60e51b815260040161031590610fa7565b61068782610ace565b92915050565b336000908152600660205260409020546106e95760405162461bcd60e51b815260206004820152601b60248201527f55736572206469646e2774207374616b6520616e7920785349472e00000000006044820152606401610315565b6106f233610c1c565b565b6000546001600160a01b0316331461071e5760405162461bcd60e51b815260040161031590610f0a565b600180546001600160a01b039586166001600160a01b0319918216179091556002805494909516931692909217909255600391909155600455565b6000546001600160a01b031633146107835760405162461bcd60e51b815260040161031590610f0a565b6106f26000610cef565b6000546001600160a01b031633146107b75760405162461bcd60e51b815260040161031590610f0a565b6001600160a01b0381166107dd5760405162461bcd60e51b815260040161031590610fa7565b600580546001600160a01b0319166001600160a01b0392909216919091179055565b6000546001600160a01b031633146108295760405162461bcd60e51b815260040161031590610f0a565b806108765760405162461bcd60e51b815260206004820152601f60248201527f5f6d61785678534947506572585349472063616e6e6f74206265207a65726f006044820152606401610315565b600455565b600081116108dd5760405162461bcd60e51b815260206004820152602960248201527f7374616b65207853494720616d6f756e742073686f756c64206265206269676760448201526806572207468616e20360bc1b6064820152608401610315565b6108e633610d3f565b33600090815260066020526040902080541561090a5761090533610c1c565b610918565b426002820181905560018201555b6001546040516323b872dd60e01b8152336004820152306024820152604481018490526001600160a01b03909116906323b872dd90606401602060405180830381600087803b15801561096a57600080fd5b505af115801561097e573d6000803e3d6000fd5b505050506040513d601f19601f820116820180604052508101906109a29190610f85565b50818160000160008282546109b79190610fcd565b90915550508054604051839033907f1449c6dd7851abc30abf37f57715f492010519147cc2652fbc38202c18a6ee9090600090a45050565b60006001600160a01b038216610a175760405162461bcd60e51b815260040161031590610fa7565b506001600160a01b031660009081526006602052604090205490565b6000546001600160a01b03163314610a5d5760405162461bcd60e51b815260040161031590610f0a565b6001600160a01b038116610ac25760405162461bcd60e51b815260206004820152602660248201527f4f776e61626c653a206e6577206f776e657220697320746865207a65726f206160448201526564647265737360d01b6064820152608401610315565b610acb81610cef565b50565b6001600160a01b0381166000908152600660209081526040808320815160608101835281548152600182015493810184905260029091015491810191909152908290610b1a9042610f55565b90506000600354828460000151610b319190610fe5565b610b3b9190610fe5565b6002546040516370a0823160e01b81526001600160a01b038881166004830152929350600092909116906370a082319060240160206040518083038186803b158015610b8657600080fd5b505afa158015610b9a573d6000803e3d6000fd5b505050506040513d601f19601f82011682018060405250810190610bbe9190610f6c565b905060006004548560000151610bd49190610fe5565b905080821015610c0f5780610be98484610fcd565b1115610c0457610bf98282610f55565b979650505050505050565b509095945050505050565b5060009695505050505050565b6000610c2782610ace565b6001600160a01b03831660009081526006602052604090204260019091015590508015610ceb5760405181906001600160a01b038416907fd8138f8a3f377c5259ca548e70e4c2de94f129f5a11036a15b69513cba2b426a90600090a36002546040516340c10f1960e01b81526001600160a01b03848116600483015260248201849052909116906340c10f1990604401600060405180830381600087803b158015610cd257600080fd5b505af1158015610ce6573d6000803e3d6000fd5b505050505b5050565b600080546001600160a01b038381166001600160a01b0319831681178455604051919092169283917f8be0079c531659141344cd1fd0a4f28419497f9722a3daafe3b4186f6b6457e09190a35050565b6001600160a01b0381163214610acb576005546001600160a01b031615801590610de15750600554604051631846d2f560e31b81526001600160a01b0383811660048301529091169063c23697a89060240160206040518083038186803b158015610da957600080fd5b505afa158015610dbd573d6000803e3d6000fd5b505050506040513d601f19601f82011682018060405250810190610de19190610f85565b610acb5760405162461bcd60e51b815260206004820152605660248201527f536d61727420636f6e7472616374206465706f7369746f7273206e6f7420616c60448201527f6c6f7765642c2061736b20666f722077686974656c697374696e67206966207960648201527537ba9030b9329039b6b0b93a1031b7b73a3930b1ba1760511b608482015260a401610315565b600060208284031215610e8457600080fd5b5035919050565b6001600160a01b0381168114610acb57600080fd5b600060208284031215610eb257600080fd5b8135610ebd81610e8b565b9392505050565b60008060008060808587031215610eda57600080fd5b8435610ee581610e8b565b93506020850135610ef581610e8b565b93969395505050506040820135916060013590565b6020808252818101527f4f776e61626c653a2063616c6c6572206973206e6f7420746865206f776e6572604082015260600190565b634e487b7160e01b600052601160045260246000fd5b600082821015610f6757610f67610f3f565b500390565b600060208284031215610f7e57600080fd5b5051919050565b600060208284031215610f9757600080fd5b81518015158114610ebd57600080fd5b6020808252600c908201526b7a65726f206164647265737360a01b604082015260600190565b60008219821115610fe057610fe0610f3f565b500190565b6000816000190483118215151615610fff57610fff610f3f565b50029056fea26469706673582212208f74d5268a9a5a67d2732c2d87d643e7be47864930a2db574b59a975979d541264736f6c63430008090033",
    "sourcePath": "/Users/jung/Desktop/defi/sigma-core/contracts/xSIGFarm.sol",
    "compiler": {
        "name": "solc",
        "version": "0.8.9+commit.e5eed63a"
    },
    "functionHashes": {
        "claim()": "4e71d92d",
        "claimable(address)": "402914f5",
        "generationRate()": "7b1ba250",
        "getStakedXSIG(address)": "cc640e9e",
        "isUser(address)": "4209fff1",
        "maxVxSIGPerXSIG()": "4a4ee518",
        "owner()": "8da5cb5b",
        "renounceOwnership()": "715018a6",
        "setGenerationRate(uint256)": "282a1129",
        "setInitialInfo(address,address,uint256,uint256)": "50312e83",
        "setMaxBoosterPerSIG(uint256)": "8fb6039e",
        "setWhitelist(address)": "854cff2f",
        "stake(uint256)": "a694fc3a",
        "transferOwnership(address)": "f2fde38b",
        "unstake(uint256)": "2e17de78",
        "userInfoOf(address)": "441e6a44",
        "vxSIG()": "d1d4337c",
        "whitelist()": "93e59dc1",
        "xSIG()": "ac630ec8"
    },
    "gasEstimates": {
        "creation": {
            "codeDepositCost": "830800",
            "executionCost": "26705",
            "totalCost": "857505"
        },
        "external": {
            "claim()": "infinite",
            "claimable(address)": "infinite",
            "generationRate()": "2307",
            "getStakedXSIG(address)": "2638",
            "isUser(address)": "2633",
            "maxVxSIGPerXSIG()": "2329",
            "owner()": "2387",
            "renounceOwnership()": "28225",
            "setGenerationRate(uint256)": "24505",
            "setInitialInfo(address,address,uint256,uint256)": "infinite",
            "setMaxBoosterPerSIG(uint256)": "24570",
            "setWhitelist(address)": "26785",
            "stake(uint256)": "infinite",
            "transferOwnership(address)": "infinite",
            "unstake(uint256)": "infinite",
            "userInfoOf(address)": "6811",
            "vxSIG()": "2425",
            "whitelist()": "2448",
            "xSIG()": "2381"
        },
        "internal": {
            "_assertNotContract(address)": "infinite",
            "_claim(address)": "infinite",
            "_claimable(address)": "infinite"
        }
    }
}